{
    "contractName": "NftShop",
    "abi": [
        {
            "inputs": [],
            "stateMutability": "nonpayable",
            "type": "constructor"
        },
        {
            "anonymous": false,
            "inputs": [
                {
                    "indexed": true,
                    "internalType": "address",
                    "name": "account",
                    "type": "address"
                },
                {
                    "indexed": true,
                    "internalType": "address",
                    "name": "operator",
                    "type": "address"
                },
                {
                    "indexed": false,
                    "internalType": "bool",
                    "name": "approved",
                    "type": "bool"
                }
            ],
            "name": "ApprovalForAll",
            "type": "event"
        },
        {
            "anonymous": false,
            "inputs": [
                {
                    "indexed": true,
                    "internalType": "address",
                    "name": "previousOwner",
                    "type": "address"
                },
                {
                    "indexed": true,
                    "internalType": "address",
                    "name": "newOwner",
                    "type": "address"
                }
            ],
            "name": "OwnershipTransferred",
            "type": "event"
        },
        {
            "anonymous": false,
            "inputs": [
                {
                    "indexed": true,
                    "internalType": "address",
                    "name": "operator",
                    "type": "address"
                },
                {
                    "indexed": true,
                    "internalType": "address",
                    "name": "from",
                    "type": "address"
                },
                {
                    "indexed": true,
                    "internalType": "address",
                    "name": "to",
                    "type": "address"
                },
                {
                    "indexed": false,
                    "internalType": "uint256[]",
                    "name": "ids",
                    "type": "uint256[]"
                },
                {
                    "indexed": false,
                    "internalType": "uint256[]",
                    "name": "values",
                    "type": "uint256[]"
                }
            ],
            "name": "TransferBatch",
            "type": "event"
        },
        {
            "anonymous": false,
            "inputs": [
                {
                    "indexed": true,
                    "internalType": "address",
                    "name": "operator",
                    "type": "address"
                },
                {
                    "indexed": true,
                    "internalType": "address",
                    "name": "from",
                    "type": "address"
                },
                {
                    "indexed": true,
                    "internalType": "address",
                    "name": "to",
                    "type": "address"
                },
                {
                    "indexed": false,
                    "internalType": "uint256",
                    "name": "id",
                    "type": "uint256"
                },
                {
                    "indexed": false,
                    "internalType": "uint256",
                    "name": "value",
                    "type": "uint256"
                }
            ],
            "name": "TransferSingle",
            "type": "event"
        },
        {
            "anonymous": false,
            "inputs": [
                {
                    "indexed": false,
                    "internalType": "string",
                    "name": "value",
                    "type": "string"
                },
                {
                    "indexed": true,
                    "internalType": "uint256",
                    "name": "id",
                    "type": "uint256"
                }
            ],
            "name": "URI",
            "type": "event"
        },
        {
            "inputs": [
                {
                    "internalType": "address",
                    "name": "account",
                    "type": "address"
                },
                {
                    "internalType": "uint256",
                    "name": "id",
                    "type": "uint256"
                }
            ],
            "name": "balanceOf",
            "outputs": [
                {
                    "internalType": "uint256",
                    "name": "",
                    "type": "uint256"
                }
            ],
            "stateMutability": "view",
            "type": "function"
        },
        {
            "inputs": [
                {
                    "internalType": "address[]",
                    "name": "accounts",
                    "type": "address[]"
                },
                {
                    "internalType": "uint256[]",
                    "name": "ids",
                    "type": "uint256[]"
                }
            ],
            "name": "balanceOfBatch",
            "outputs": [
                {
                    "internalType": "uint256[]",
                    "name": "",
                    "type": "uint256[]"
                }
            ],
            "stateMutability": "view",
            "type": "function"
        },
        {
            "inputs": [
                {
                    "internalType": "address",
                    "name": "account",
                    "type": "address"
                },
                {
                    "internalType": "address",
                    "name": "operator",
                    "type": "address"
                }
            ],
            "name": "isApprovedForAll",
            "outputs": [
                {
                    "internalType": "bool",
                    "name": "",
                    "type": "bool"
                }
            ],
            "stateMutability": "view",
            "type": "function"
        },
        {
            "inputs": [
                {
                    "internalType": "uint256",
                    "name": "tokenId",
                    "type": "uint256"
                },
                {
                    "internalType": "bytes",
                    "name": "data",
                    "type": "bytes"
                }
            ],
            "name": "mintNFT",
            "outputs": [],
            "stateMutability": "payable",
            "type": "function"
        },
        {
            "inputs": [],
            "name": "owner",
            "outputs": [
                {
                    "internalType": "address",
                    "name": "",
                    "type": "address"
                }
            ],
            "stateMutability": "view",
            "type": "function"
        },
        {
            "inputs": [],
            "name": "price",
            "outputs": [
                {
                    "internalType": "uint256",
                    "name": "",
                    "type": "uint256"
                }
            ],
            "stateMutability": "view",
            "type": "function"
        },
        {
            "inputs": [],
            "name": "renounceOwnership",
            "outputs": [],
            "stateMutability": "nonpayable",
            "type": "function"
        },
        {
            "inputs": [
                {
                    "internalType": "address",
                    "name": "from",
                    "type": "address"
                },
                {
                    "internalType": "address",
                    "name": "to",
                    "type": "address"
                },
                {
                    "internalType": "uint256[]",
                    "name": "ids",
                    "type": "uint256[]"
                },
                {
                    "internalType": "uint256[]",
                    "name": "amounts",
                    "type": "uint256[]"
                },
                {
                    "internalType": "bytes",
                    "name": "data",
                    "type": "bytes"
                }
            ],
            "name": "safeBatchTransferFrom",
            "outputs": [],
            "stateMutability": "nonpayable",
            "type": "function"
        },
        {
            "inputs": [
                {
                    "internalType": "address",
                    "name": "from",
                    "type": "address"
                },
                {
                    "internalType": "address",
                    "name": "to",
                    "type": "address"
                },
                {
                    "internalType": "uint256",
                    "name": "id",
                    "type": "uint256"
                },
                {
                    "internalType": "uint256",
                    "name": "amount",
                    "type": "uint256"
                },
                {
                    "internalType": "bytes",
                    "name": "data",
                    "type": "bytes"
                }
            ],
            "name": "safeTransferFrom",
            "outputs": [],
            "stateMutability": "nonpayable",
            "type": "function"
        },
        {
            "inputs": [
                {
                    "internalType": "address",
                    "name": "operator",
                    "type": "address"
                },
                {
                    "internalType": "bool",
                    "name": "approved",
                    "type": "bool"
                }
            ],
            "name": "setApprovalForAll",
            "outputs": [],
            "stateMutability": "nonpayable",
            "type": "function"
        },
        {
            "inputs": [
                {
                    "internalType": "uint256",
                    "name": "_price",
                    "type": "uint256"
                }
            ],
            "name": "setPrice",
            "outputs": [],
            "stateMutability": "nonpayable",
            "type": "function"
        },
        {
            "inputs": [
                {
                    "internalType": "bytes4",
                    "name": "interfaceId",
                    "type": "bytes4"
                }
            ],
            "name": "supportsInterface",
            "outputs": [
                {
                    "internalType": "bool",
                    "name": "",
                    "type": "bool"
                }
            ],
            "stateMutability": "view",
            "type": "function"
        },
        {
            "inputs": [
                {
                    "internalType": "address",
                    "name": "newOwner",
                    "type": "address"
                }
            ],
            "name": "transferOwnership",
            "outputs": [],
            "stateMutability": "nonpayable",
            "type": "function"
        },
        {
            "inputs": [
                {
                    "internalType": "uint256",
                    "name": "",
                    "type": "uint256"
                }
            ],
            "name": "uri",
            "outputs": [
                {
                    "internalType": "string",
                    "name": "",
                    "type": "string"
                }
            ],
            "stateMutability": "view",
            "type": "function"
        }
    ],
    "bytecode": "6080604052662386f26fc100006004553480156200001c57600080fd5b50604080516020810190915260008152620000378162000049565b5062000043336200005b565b6200021e565b600262000057828262000152565b5050565b600380546001600160a01b038381166001600160a01b0319831681179093556040519116919082907f8be0079c531659141344cd1fd0a4f28419497f9722a3daafe3b4186f6b6457e090600090a35050565b634e487b7160e01b600052604160045260246000fd5b600181811c90821680620000d857607f821691505b602082108103620000f957634e487b7160e01b600052602260045260246000fd5b50919050565b601f8211156200014d57600081815260208120601f850160051c81016020861015620001285750805b601f850160051c820191505b81811015620001495782815560010162000134565b5050505b505050565b81516001600160401b038111156200016e576200016e620000ad565b62000186816200017f8454620000c3565b84620000ff565b602080601f831160018114620001be5760008415620001a55750858301515b600019600386901b1c1916600185901b17855562000149565b600085815260208120601f198616915b82811015620001ef57888601518255948401946001909101908401620001ce565b50858210156200020e5787850151600019600388901b60f8161c191681555b5050505050600190811b01905550565b6118cb806200022e6000396000f3fe6080604052600436106100dc5760003560e01c806391b7f5ed1161007f578063a22cb46511610059578063a22cb46514610246578063e985e9c514610266578063f242432a146102af578063f2fde38b146102cf57600080fd5b806391b7f5ed146101fd5780639224a33f1461021d578063a035b1fe1461023057600080fd5b80632eb2c2d6116100bb5780632eb2c2d6146101715780634e1273f414610193578063715018a6146101c05780638da5cb5b146101d557600080fd5b8062fdd58e146100e157806301ffc9a7146101145780630e89341c14610144575b600080fd5b3480156100ed57600080fd5b506101016100fc366004611046565b6102ef565b6040519081526020015b60405180910390f35b34801561012057600080fd5b5061013461012f366004611086565b610386565b604051901515815260200161010b565b34801561015057600080fd5b5061016461015f3660046110aa565b6103d8565b60405161010b9190611110565b34801561017d57600080fd5b5061019161018c36600461126f565b61046c565b005b34801561019f57600080fd5b506101b36101ae366004611319565b610503565b60405161010b919061141f565b3480156101cc57600080fd5b5061019161062d565b3480156101e157600080fd5b506003546040516001600160a01b03909116815260200161010b565b34801561020957600080fd5b506101916102183660046110aa565b610663565b61019161022b366004611432565b610692565b34801561023c57600080fd5b5061010160045481565b34801561025257600080fd5b5061019161026136600461146f565b61074f565b34801561027257600080fd5b506101346102813660046114ab565b6001600160a01b03918216600090815260016020908152604080832093909416825291909152205460ff1690565b3480156102bb57600080fd5b506101916102ca3660046114de565b61075a565b3480156102db57600080fd5b506101916102ea366004611543565b6107e1565b60006001600160a01b0383166103605760405162461bcd60e51b815260206004820152602b60248201527f455243313135353a2062616c616e636520717565727920666f7220746865207a60448201526a65726f206164647265737360a81b60648201526084015b60405180910390fd5b506000908152602081815260408083206001600160a01b03949094168352929052205490565b60006001600160e01b03198216636cdb3d1360e11b14806103b757506001600160e01b031982166303a24d0760e21b145b806103d257506301ffc9a760e01b6001600160e01b03198316145b92915050565b6060600280546103e79061155e565b80601f01602080910402602001604051908101604052809291908181526020018280546104139061155e565b80156104605780601f1061043557610100808354040283529160200191610460565b820191906000526020600020905b81548152906001019060200180831161044357829003601f168201915b50505050509050919050565b6001600160a01b03851633148061048857506104888533610281565b6104ef5760405162461bcd60e51b815260206004820152603260248201527f455243313135353a207472616e736665722063616c6c6572206973206e6f74206044820152711bdddb995c881b9bdc88185c1c1c9bdd995960721b6064820152608401610357565b6104fc858585858561087c565b5050505050565b606081518351146105685760405162461bcd60e51b815260206004820152602960248201527f455243313135353a206163636f756e747320616e6420696473206c656e677468604482015268040dad2e6dac2e8c6d60bb1b6064820152608401610357565b6000835167ffffffffffffffff81111561058457610584611123565b6040519080825280602002602001820160405280156105ad578160200160208202803683370190505b50905060005b8451811015610625576105f88582815181106105d1576105d1611598565b60200260200101518583815181106105eb576105eb611598565b60200260200101516102ef565b82828151811061060a5761060a611598565b602090810291909101015261061e816115c4565b90506105b3565b509392505050565b6003546001600160a01b031633146106575760405162461bcd60e51b8152600401610357906115dd565b6106616000610a59565b565b6003546001600160a01b0316331461068d5760405162461bcd60e51b8152600401610357906115dd565b600455565b61069c33836102ef565b6000036106eb5760405162461bcd60e51b815260206004820152601d60248201527f455243313135353a20746f6b656e20616c7265616479206d696e7465640000006044820152606401610357565b60045434101561073d5760405162461bcd60e51b815260206004820181905260248201527f4e6f7420656e6f75676820657468657220666f72207472616e73616374696f6e6044820152606401610357565b61074b336000600184610aab565b5050565b61074b338383610bbf565b6001600160a01b03851633148061077657506107768533610281565b6107d45760405162461bcd60e51b815260206004820152602960248201527f455243313135353a2063616c6c6572206973206e6f74206f776e6572206e6f7260448201526808185c1c1c9bdd995960ba1b6064820152608401610357565b6104fc8585858585610c9f565b6003546001600160a01b0316331461080b5760405162461bcd60e51b8152600401610357906115dd565b6001600160a01b0381166108705760405162461bcd60e51b815260206004820152602660248201527f4f776e61626c653a206e6577206f776e657220697320746865207a65726f206160448201526564647265737360d01b6064820152608401610357565b61087981610a59565b50565b81518351146108de5760405162461bcd60e51b815260206004820152602860248201527f455243313135353a2069647320616e6420616d6f756e7473206c656e677468206044820152670dad2e6dac2e8c6d60c31b6064820152608401610357565b6001600160a01b0384166109045760405162461bcd60e51b815260040161035790611612565b3360005b84518110156109eb57600085828151811061092557610925611598565b60200260200101519050600085838151811061094357610943611598565b602090810291909101810151600084815280835260408082206001600160a01b038e1683529093529190912054909150818110156109935760405162461bcd60e51b815260040161035790611657565b6000838152602081815260408083206001600160a01b038e8116855292528083208585039055908b168252812080548492906109d09084906116a1565b92505081905550505050806109e4906115c4565b9050610908565b50846001600160a01b0316866001600160a01b0316826001600160a01b03167f4a39dc06d4c0dbc64b70af90fd698a233a518aa5d07e595d983b8c0526c8f7fb8787604051610a3b9291906116b9565b60405180910390a4610a51818787878787610dc9565b505050505050565b600380546001600160a01b038381166001600160a01b0319831681179093556040519116919082907f8be0079c531659141344cd1fd0a4f28419497f9722a3daafe3b4186f6b6457e090600090a35050565b6001600160a01b038416610b0b5760405162461bcd60e51b815260206004820152602160248201527f455243313135353a206d696e7420746f20746865207a65726f206164647265736044820152607360f81b6064820152608401610357565b336000610b1785610f24565b90506000610b2485610f24565b90506000868152602081815260408083206001600160a01b038b16845290915281208054879290610b569084906116a1565b909155505060408051878152602081018790526001600160a01b03808a1692600092918716917fc3d58168c5ae7397731d063d5bbf3d657854427343f4c083240f7aacaa2d0f62910160405180910390a4610bb683600089898989610f6f565b50505050505050565b816001600160a01b0316836001600160a01b031603610c325760405162461bcd60e51b815260206004820152602960248201527f455243313135353a2073657474696e6720617070726f76616c20737461747573604482015268103337b91039b2b63360b91b6064820152608401610357565b6001600160a01b03838116600081815260016020908152604080832094871680845294825291829020805460ff191686151590811790915591519182527f17307eab39ab6107e8899845ad3d59bd9653f200f220920489ca2b5937696c31910160405180910390a3505050565b6001600160a01b038416610cc55760405162461bcd60e51b815260040161035790611612565b336000610cd185610f24565b90506000610cde85610f24565b90506000868152602081815260408083206001600160a01b038c16845290915290205485811015610d215760405162461bcd60e51b815260040161035790611657565b6000878152602081815260408083206001600160a01b038d8116855292528083208985039055908a16825281208054889290610d5e9084906116a1565b909155505060408051888152602081018890526001600160a01b03808b16928c821692918816917fc3d58168c5ae7397731d063d5bbf3d657854427343f4c083240f7aacaa2d0f62910160405180910390a4610dbe848a8a8a8a8a610f6f565b505050505050505050565b6001600160a01b0384163b15610a515760405163bc197c8160e01b81526001600160a01b0385169063bc197c8190610e0d90899089908890889088906004016116e7565b6020604051808303816000875af1925050508015610e48575060408051601f3d908101601f19168201909252610e4591810190611745565b60015b610ef457610e54611762565b806308c379a003610e8d5750610e6861177e565b80610e735750610e8f565b8060405162461bcd60e51b81526004016103579190611110565b505b60405162461bcd60e51b815260206004820152603460248201527f455243313135353a207472616e7366657220746f206e6f6e20455243313135356044820152732932b1b2b4bb32b91034b6b83632b6b2b73a32b960611b6064820152608401610357565b6001600160e01b0319811663bc197c8160e01b14610bb65760405162461bcd60e51b815260040161035790611808565b60408051600180825281830190925260609160009190602080830190803683370190505090508281600081518110610f5e57610f5e611598565b602090810291909101015292915050565b6001600160a01b0384163b15610a515760405163f23a6e6160e01b81526001600160a01b0385169063f23a6e6190610fb39089908990889088908890600401611850565b6020604051808303816000875af1925050508015610fee575060408051601f3d908101601f19168201909252610feb91810190611745565b60015b610ffa57610e54611762565b6001600160e01b0319811663f23a6e6160e01b14610bb65760405162461bcd60e51b815260040161035790611808565b80356001600160a01b038116811461104157600080fd5b919050565b6000806040838503121561105957600080fd5b6110628361102a565b946020939093013593505050565b6001600160e01b03198116811461087957600080fd5b60006020828403121561109857600080fd5b81356110a381611070565b9392505050565b6000602082840312156110bc57600080fd5b5035919050565b6000815180845260005b818110156110e9576020818501810151868301820152016110cd565b818111156110fb576000602083870101525b50601f01601f19169290920160200192915050565b6020815260006110a360208301846110c3565b634e487b7160e01b600052604160045260246000fd5b601f8201601f1916810167ffffffffffffffff8111828210171561115f5761115f611123565b6040525050565b600067ffffffffffffffff82111561118057611180611123565b5060051b60200190565b600082601f83011261119b57600080fd5b813560206111a882611166565b6040516111b58282611139565b83815260059390931b85018201928281019150868411156111d557600080fd5b8286015b848110156111f057803583529183019183016111d9565b509695505050505050565b600082601f83011261120c57600080fd5b813567ffffffffffffffff81111561122657611226611123565b60405161123d601f8301601f191660200182611139565b81815284602083860101111561125257600080fd5b816020850160208301376000918101602001919091529392505050565b600080600080600060a0868803121561128757600080fd5b6112908661102a565b945061129e6020870161102a565b9350604086013567ffffffffffffffff808211156112bb57600080fd5b6112c789838a0161118a565b945060608801359150808211156112dd57600080fd5b6112e989838a0161118a565b935060808801359150808211156112ff57600080fd5b5061130c888289016111fb565b9150509295509295909350565b6000806040838503121561132c57600080fd5b823567ffffffffffffffff8082111561134457600080fd5b818501915085601f83011261135857600080fd5b8135602061136582611166565b6040516113728282611139565b83815260059390931b850182019282810191508984111561139257600080fd5b948201945b838610156113b7576113a88661102a565b82529482019490820190611397565b965050860135925050808211156113cd57600080fd5b506113da8582860161118a565b9150509250929050565b600081518084526020808501945080840160005b83811015611414578151875295820195908201906001016113f8565b509495945050505050565b6020815260006110a360208301846113e4565b6000806040838503121561144557600080fd5b82359150602083013567ffffffffffffffff81111561146357600080fd5b6113da858286016111fb565b6000806040838503121561148257600080fd5b61148b8361102a565b9150602083013580151581146114a057600080fd5b809150509250929050565b600080604083850312156114be57600080fd5b6114c78361102a565b91506114d56020840161102a565b90509250929050565b600080600080600060a086880312156114f657600080fd5b6114ff8661102a565b945061150d6020870161102a565b93506040860135925060608601359150608086013567ffffffffffffffff81111561153757600080fd5b61130c888289016111fb565b60006020828403121561155557600080fd5b6110a38261102a565b600181811c9082168061157257607f821691505b60208210810361159257634e487b7160e01b600052602260045260246000fd5b50919050565b634e487b7160e01b600052603260045260246000fd5b634e487b7160e01b600052601160045260246000fd5b6000600182016115d6576115d66115ae565b5060010190565b6020808252818101527f4f776e61626c653a2063616c6c6572206973206e6f7420746865206f776e6572604082015260600190565b60208082526025908201527f455243313135353a207472616e7366657220746f20746865207a65726f206164604082015264647265737360d81b606082015260800190565b6020808252602a908201527f455243313135353a20696e73756666696369656e742062616c616e636520666f60408201526939103a3930b739b332b960b11b606082015260800190565b600082198211156116b4576116b46115ae565b500190565b6040815260006116cc60408301856113e4565b82810360208401526116de81856113e4565b95945050505050565b6001600160a01b0386811682528516602082015260a060408201819052600090611713908301866113e4565b828103606084015261172581866113e4565b9050828103608084015261173981856110c3565b98975050505050505050565b60006020828403121561175757600080fd5b81516110a381611070565b600060033d111561177b5760046000803e5060005160e01c5b90565b600060443d101561178c5790565b6040516003193d81016004833e81513d67ffffffffffffffff81602484011181841117156117bc57505050505090565b82850191508151818111156117d45750505050505090565b843d87010160208285010111156117ee5750505050505090565b6117fd60208286010187611139565b509095945050505050565b60208082526028908201527f455243313135353a204552433131353552656365697665722072656a656374656040820152676420746f6b656e7360c01b606082015260800190565b6001600160a01b03868116825285166020820152604081018490526060810183905260a06080820181905260009061188a908301846110c3565b97965050505050505056fea2646970667358221220b008b7da727439586b2698595c91431f787f65a18f0d3782b93ff9489a24a41964736f6c634300080f0033",
    "sourcePath": "c:/Users/saman/Desktop/Pro-Chain-X/Smart Contracts/contracts/MintArenaAccessNFT.sol",
    "compiler": {
        "name": "solc",
        "version": "0.8.15+commit.e14f2714"
    },
    "functionHashes": {
        "balanceOf(address,uint256)": "00fdd58e",
        "balanceOfBatch(address[],uint256[])": "4e1273f4",
        "isApprovedForAll(address,address)": "e985e9c5",
        "mintNFT(uint256,bytes)": "9224a33f",
        "owner()": "8da5cb5b",
        "price()": "a035b1fe",
        "renounceOwnership()": "715018a6",
        "safeBatchTransferFrom(address,address,uint256[],uint256[],bytes)": "2eb2c2d6",
        "safeTransferFrom(address,address,uint256,uint256,bytes)": "f242432a",
        "setApprovalForAll(address,bool)": "a22cb465",
        "setPrice(uint256)": "91b7f5ed",
        "supportsInterface(bytes4)": "01ffc9a7",
        "transferOwnership(address)": "f2fde38b",
        "uri(uint256)": "0e89341c"
    },
    "gasEstimates": {
        "creation": {
            "codeDepositCost": "1269400",
            "executionCost": "infinite",
            "totalCost": "infinite"
        },
        "external": {
            "balanceOf(address,uint256)": "2695",
            "balanceOfBatch(address[],uint256[])": "infinite",
            "isApprovedForAll(address,address)": "infinite",
            "mintNFT(uint256,bytes)": "infinite",
            "owner()": "2390",
            "price()": "2351",
            "renounceOwnership()": "28184",
            "safeBatchTransferFrom(address,address,uint256[],uint256[],bytes)": "infinite",
            "safeTransferFrom(address,address,uint256,uint256,bytes)": "infinite",
            "setApprovalForAll(address,bool)": "26705",
            "setPrice(uint256)": "24487",
            "supportsInterface(bytes4)": "567",
            "transferOwnership(address)": "28400",
            "uri(uint256)": "infinite"
        }
    }
}