{
  "_format": "hh-sol-artifact-1",
  "contractName": "BettingArena",
  "sourceName": "contracts/BettingArena.sol",
  "abi": [
    {
      "anonymous": false,
      "inputs": [
        {
          "indexed": true,
          "internalType": "address",
          "name": "previousOwner",
          "type": "address"
        },
        {
          "indexed": true,
          "internalType": "address",
          "name": "newOwner",
          "type": "address"
        }
      ],
      "name": "OwnershipTransferred",
      "type": "event"
    },
    {
      "inputs": [
        {
          "internalType": "uint256",
          "name": "",
          "type": "uint256"
        }
      ],
      "name": "bettersAddresses",
      "outputs": [
        {
          "internalType": "address",
          "name": "",
          "type": "address"
        }
      ],
      "stateMutability": "view",
      "type": "function"
    },
    {
      "inputs": [],
      "name": "owner",
      "outputs": [
        {
          "internalType": "address",
          "name": "",
          "type": "address"
        }
      ],
      "stateMutability": "view",
      "type": "function"
    },
    {
      "inputs": [
        {
          "internalType": "address",
          "name": "winnerAddress",
          "type": "address"
        }
      ],
      "name": "payout",
      "outputs": [],
      "stateMutability": "nonpayable",
      "type": "function"
    },
    {
      "inputs": [
        {
          "internalType": "address",
          "name": "bettingOn",
          "type": "address"
        },
        {
          "internalType": "uint256",
          "name": "amountToBet",
          "type": "uint256"
        }
      ],
      "name": "placeBet",
      "outputs": [],
      "stateMutability": "payable",
      "type": "function"
    },
    {
      "inputs": [],
      "name": "renounceOwnership",
      "outputs": [],
      "stateMutability": "nonpayable",
      "type": "function"
    },
    {
      "inputs": [
        {
          "internalType": "address",
          "name": "newOwner",
          "type": "address"
        }
      ],
      "name": "transferOwnership",
      "outputs": [],
      "stateMutability": "nonpayable",
      "type": "function"
    }
  ],
  "bytecode": "0x6080604052600180556009600255600060065534801561001e57600080fd5b506100283361002d565b61007d565b600080546001600160a01b038381166001600160a01b0319831681178455604051919092169283917f8be0079c531659141344cd1fd0a4f28419497f9722a3daafe3b4186f6b6457e09190a35050565b6107d98061008c6000396000f3fe6080604052600436106100555760003560e01c8063070f5b701461005a5780630b7e9c4414610096578063715018a6146100b85780638da5cb5b146100cd578063d4de4ba5146100eb578063f2fde38b146100fe575b600080fd5b34801561006657600080fd5b5061007a61007536600461066b565b61011e565b6040516001600160a01b03909116815260200160405180910390f35b3480156100a257600080fd5b506100b66100b13660046106a0565b610148565b005b3480156100c457600080fd5b506100b6610274565b3480156100d957600080fd5b506000546001600160a01b031661007a565b6100b66100f93660046106c2565b6102df565b34801561010a57600080fd5b506100b66101193660046106a0565b610419565b6005818154811061012e57600080fd5b6000918252602090912001546001600160a01b0316905081565b60065460025461017290839061016090606490610702565b60065461016d9190610724565b6104e4565b60646002546101819190610702565b60065461018e9190610724565b6101989082610743565b90506101be6101af6000546001600160a01b031690565b60646001546101609190610702565b60646001546101cd9190610702565b6006546101da9190610724565b6101e49082610743565b905060005b600554811015610267576000600582815481106102085761020861075a565b60009182526020808320909101546001600160a01b03168083526003909152604082205490925061023a908590610702565b90506102468185610743565b935061025282826104e4565b5050808061025f90610770565b9150506101e9565b5061027061051f565b5050565b6000546001600160a01b031633146102d35760405162461bcd60e51b815260206004820181905260248201527f4f776e61626c653a2063616c6c6572206973206e6f7420746865206f776e657260448201526064015b60405180910390fd5b6102dd60006105e9565b565b33600090815260036020526040902054156103325760405162461bcd60e51b815260206004820152601360248201527220b63932b0b23c90383630b1b2b2103132ba1760691b60448201526064016102ca565b6000341161038c5760405162461bcd60e51b815260206004820152602160248201527f4e6f7420656e6f756768206d6f6e657920666f72207472616e73616374696f6e6044820152601760f91b60648201526084016102ca565b3360009081526003602090815260408083208490556004909152812080546001600160a01b0385166001600160a01b03199182168117909255600580546001810182559084527f036b6384b5eca791c62761152d0c79bb0604c104a5fb6f4eb0703f3154bb3db001805490911690911790556006805483929061041090849061078b565b90915550505050565b6000546001600160a01b031633146104735760405162461bcd60e51b815260206004820181905260248201527f4f776e61626c653a2063616c6c6572206973206e6f7420746865206f776e657260448201526064016102ca565b6001600160a01b0381166104d85760405162461bcd60e51b815260206004820152602660248201527f4f776e61626c653a206e6577206f776e657220697320746865207a65726f206160448201526564647265737360d01b60648201526084016102ca565b6104e1816105e9565b50565b6040516001600160a01b0383169082156108fc029083906000818181858888f1935050505015801561051a573d6000803e3d6000fd5b505050565b600060068190555b6005548110156104e1576000600360006005848154811061054a5761054a61075a565b60009182526020808320909101546001600160a01b031683528201929092526040018120919091556005805460049183918590811061058b5761058b61075a565b6000918252602080832091909101546001600160a01b039081168452908301939093526040909101812080546001600160a01b031916939092169290921790556105d790600590610639565b806105e181610770565b915050610527565b600080546001600160a01b038381166001600160a01b0319831681178455604051919092169283917f8be0079c531659141344cd1fd0a4f28419497f9722a3daafe3b4186f6b6457e09190a35050565b50805460008255906000526020600020908101906104e191905b808211156106675760008155600101610653565b5090565b60006020828403121561067d57600080fd5b5035919050565b80356001600160a01b038116811461069b57600080fd5b919050565b6000602082840312156106b257600080fd5b6106bb82610684565b9392505050565b600080604083850312156106d557600080fd5b6106de83610684565b946020939093013593505050565b634e487b7160e01b600052601160045260246000fd5b60008261071f57634e487b7160e01b600052601260045260246000fd5b500490565b600081600019048311821515161561073e5761073e6106ec565b500290565b600082821015610755576107556106ec565b500390565b634e487b7160e01b600052603260045260246000fd5b6000600019821415610784576107846106ec565b5060010190565b6000821982111561079e5761079e6106ec565b50019056fea26469706673582212200f2debcfe07b85d2890ff0c65ef434070ecaa3726ccd297a29382601ee7b1baf64736f6c634300080c0033",
  "linkReferences": {},
  "deployedLinkReferences": {}
}