{
  "_format": "hh-sol-artifact-1",
  "contractName": "NftShop",
  "sourceName": "contracts/NftShop.sol",
  "abi": [
    {
      "inputs": [],
      "stateMutability": "nonpayable",
      "type": "constructor"
    },
    {
      "anonymous": false,
      "inputs": [
        {
          "indexed": true,
          "internalType": "address",
          "name": "account",
          "type": "address"
        },
        {
          "indexed": true,
          "internalType": "address",
          "name": "operator",
          "type": "address"
        },
        {
          "indexed": false,
          "internalType": "bool",
          "name": "approved",
          "type": "bool"
        }
      ],
      "name": "ApprovalForAll",
      "type": "event"
    },
    {
      "anonymous": false,
      "inputs": [
        {
          "indexed": true,
          "internalType": "address",
          "name": "previousOwner",
          "type": "address"
        },
        {
          "indexed": true,
          "internalType": "address",
          "name": "newOwner",
          "type": "address"
        }
      ],
      "name": "OwnershipTransferred",
      "type": "event"
    },
    {
      "anonymous": false,
      "inputs": [
        {
          "indexed": true,
          "internalType": "address",
          "name": "operator",
          "type": "address"
        },
        {
          "indexed": true,
          "internalType": "address",
          "name": "from",
          "type": "address"
        },
        {
          "indexed": true,
          "internalType": "address",
          "name": "to",
          "type": "address"
        },
        {
          "indexed": false,
          "internalType": "uint256[]",
          "name": "ids",
          "type": "uint256[]"
        },
        {
          "indexed": false,
          "internalType": "uint256[]",
          "name": "values",
          "type": "uint256[]"
        }
      ],
      "name": "TransferBatch",
      "type": "event"
    },
    {
      "anonymous": false,
      "inputs": [
        {
          "indexed": true,
          "internalType": "address",
          "name": "operator",
          "type": "address"
        },
        {
          "indexed": true,
          "internalType": "address",
          "name": "from",
          "type": "address"
        },
        {
          "indexed": true,
          "internalType": "address",
          "name": "to",
          "type": "address"
        },
        {
          "indexed": false,
          "internalType": "uint256",
          "name": "id",
          "type": "uint256"
        },
        {
          "indexed": false,
          "internalType": "uint256",
          "name": "value",
          "type": "uint256"
        }
      ],
      "name": "TransferSingle",
      "type": "event"
    },
    {
      "anonymous": false,
      "inputs": [
        {
          "indexed": false,
          "internalType": "string",
          "name": "value",
          "type": "string"
        },
        {
          "indexed": true,
          "internalType": "uint256",
          "name": "id",
          "type": "uint256"
        }
      ],
      "name": "URI",
      "type": "event"
    },
    {
      "inputs": [
        {
          "internalType": "address",
          "name": "account",
          "type": "address"
        },
        {
          "internalType": "uint256",
          "name": "id",
          "type": "uint256"
        }
      ],
      "name": "balanceOf",
      "outputs": [
        {
          "internalType": "uint256",
          "name": "",
          "type": "uint256"
        }
      ],
      "stateMutability": "view",
      "type": "function"
    },
    {
      "inputs": [
        {
          "internalType": "address[]",
          "name": "accounts",
          "type": "address[]"
        },
        {
          "internalType": "uint256[]",
          "name": "ids",
          "type": "uint256[]"
        }
      ],
      "name": "balanceOfBatch",
      "outputs": [
        {
          "internalType": "uint256[]",
          "name": "",
          "type": "uint256[]"
        }
      ],
      "stateMutability": "view",
      "type": "function"
    },
    {
      "inputs": [
        {
          "internalType": "address",
          "name": "account",
          "type": "address"
        },
        {
          "internalType": "address",
          "name": "operator",
          "type": "address"
        }
      ],
      "name": "isApprovedForAll",
      "outputs": [
        {
          "internalType": "bool",
          "name": "",
          "type": "bool"
        }
      ],
      "stateMutability": "view",
      "type": "function"
    },
    {
      "inputs": [],
      "name": "mint",
      "outputs": [],
      "stateMutability": "payable",
      "type": "function"
    },
    {
      "inputs": [],
      "name": "owner",
      "outputs": [
        {
          "internalType": "address",
          "name": "",
          "type": "address"
        }
      ],
      "stateMutability": "view",
      "type": "function"
    },
    {
      "inputs": [],
      "name": "price",
      "outputs": [
        {
          "internalType": "uint256",
          "name": "",
          "type": "uint256"
        }
      ],
      "stateMutability": "view",
      "type": "function"
    },
    {
      "inputs": [],
      "name": "renounceOwnership",
      "outputs": [],
      "stateMutability": "nonpayable",
      "type": "function"
    },
    {
      "inputs": [
        {
          "internalType": "address",
          "name": "from",
          "type": "address"
        },
        {
          "internalType": "address",
          "name": "to",
          "type": "address"
        },
        {
          "internalType": "uint256[]",
          "name": "ids",
          "type": "uint256[]"
        },
        {
          "internalType": "uint256[]",
          "name": "amounts",
          "type": "uint256[]"
        },
        {
          "internalType": "bytes",
          "name": "data",
          "type": "bytes"
        }
      ],
      "name": "safeBatchTransferFrom",
      "outputs": [],
      "stateMutability": "nonpayable",
      "type": "function"
    },
    {
      "inputs": [
        {
          "internalType": "address",
          "name": "from",
          "type": "address"
        },
        {
          "internalType": "address",
          "name": "to",
          "type": "address"
        },
        {
          "internalType": "uint256",
          "name": "id",
          "type": "uint256"
        },
        {
          "internalType": "uint256",
          "name": "amount",
          "type": "uint256"
        },
        {
          "internalType": "bytes",
          "name": "data",
          "type": "bytes"
        }
      ],
      "name": "safeTransferFrom",
      "outputs": [],
      "stateMutability": "nonpayable",
      "type": "function"
    },
    {
      "inputs": [
        {
          "internalType": "address",
          "name": "operator",
          "type": "address"
        },
        {
          "internalType": "bool",
          "name": "approved",
          "type": "bool"
        }
      ],
      "name": "setApprovalForAll",
      "outputs": [],
      "stateMutability": "nonpayable",
      "type": "function"
    },
    {
      "inputs": [
        {
          "internalType": "uint256",
          "name": "_price",
          "type": "uint256"
        }
      ],
      "name": "setPrice",
      "outputs": [],
      "stateMutability": "nonpayable",
      "type": "function"
    },
    {
      "inputs": [
        {
          "internalType": "string",
          "name": "newuri",
          "type": "string"
        }
      ],
      "name": "setURI",
      "outputs": [],
      "stateMutability": "nonpayable",
      "type": "function"
    },
    {
      "inputs": [
        {
          "internalType": "bytes4",
          "name": "interfaceId",
          "type": "bytes4"
        }
      ],
      "name": "supportsInterface",
      "outputs": [
        {
          "internalType": "bool",
          "name": "",
          "type": "bool"
        }
      ],
      "stateMutability": "view",
      "type": "function"
    },
    {
      "inputs": [
        {
          "internalType": "address",
          "name": "newOwner",
          "type": "address"
        }
      ],
      "name": "transferOwnership",
      "outputs": [],
      "stateMutability": "nonpayable",
      "type": "function"
    },
    {
      "inputs": [
        {
          "internalType": "uint256",
          "name": "",
          "type": "uint256"
        }
      ],
      "name": "uri",
      "outputs": [
        {
          "internalType": "string",
          "name": "",
          "type": "string"
        }
      ],
      "stateMutability": "view",
      "type": "function"
    }
  ],
  "bytecode": "0x6080604052662386f26fc100006004553480156200001c57600080fd5b5060405180608001604052806050815260200162001baf60509139620000428162000054565b506200004e336200006d565b620001a2565b805162000069906002906020840190620000bf565b5050565b600380546001600160a01b038381166001600160a01b0319831681179093556040519116919082907f8be0079c531659141344cd1fd0a4f28419497f9722a3daafe3b4186f6b6457e090600090a35050565b828054620000cd9062000165565b90600052602060002090601f016020900481019282620000f157600085556200013c565b82601f106200010c57805160ff19168380011785556200013c565b828001600101855582156200013c579182015b828111156200013c5782518255916020019190600101906200011f565b506200014a9291506200014e565b5090565b5b808211156200014a57600081556001016200014f565b600181811c908216806200017a57607f821691505b602082108114156200019c57634e487b7160e01b600052602260045260246000fd5b50919050565b6119fd80620001b26000396000f3fe6080604052600436106100e75760003560e01c8063715018a61161008a578063a22cb46511610059578063a22cb46514610266578063e985e9c514610286578063f242432a146102cf578063f2fde38b146102ef57600080fd5b8063715018a6146101f35780638da5cb5b1461020857806391b7f5ed14610230578063a035b1fe1461025057600080fd5b80630e89341c116100c65780630e89341c146101715780631249c58b1461019e5780632eb2c2d6146101a65780634e1273f4146101c657600080fd5b8062fdd58e146100ec57806301ffc9a71461011f57806302fe53051461014f575b600080fd5b3480156100f857600080fd5b5061010c610107366004611157565b61030f565b6040519081526020015b60405180910390f35b34801561012b57600080fd5b5061013f61013a366004611197565b6103a6565b6040519015158152602001610116565b34801561015b57600080fd5b5061016f61016a36600461125c565b6103f8565b005b34801561017d57600080fd5b5061019161018c3660046112ad565b61042e565b6040516101169190611313565b61016f6104c2565b3480156101b257600080fd5b5061016f6101c13660046113db565b61058d565b3480156101d257600080fd5b506101e66101e1366004611485565b610624565b604051610116919061158b565b3480156101ff57600080fd5b5061016f61074e565b34801561021457600080fd5b506003546040516001600160a01b039091168152602001610116565b34801561023c57600080fd5b5061016f61024b3660046112ad565b610782565b34801561025c57600080fd5b5061010c60045481565b34801561027257600080fd5b5061016f61028136600461159e565b6107b1565b34801561029257600080fd5b5061013f6102a13660046115da565b6001600160a01b03918216600090815260016020908152604080832093909416825291909152205460ff1690565b3480156102db57600080fd5b5061016f6102ea36600461160d565b6107c0565b3480156102fb57600080fd5b5061016f61030a366004611672565b610847565b60006001600160a01b0383166103805760405162461bcd60e51b815260206004820152602b60248201527f455243313135353a2062616c616e636520717565727920666f7220746865207a60448201526a65726f206164647265737360a81b60648201526084015b60405180910390fd5b506000908152602081815260408083206001600160a01b03949094168352929052205490565b60006001600160e01b03198216636cdb3d1360e11b14806103d757506001600160e01b031982166303a24d0760e21b145b806103f257506301ffc9a760e01b6001600160e01b03198316145b92915050565b6003546001600160a01b031633146104225760405162461bcd60e51b81526004016103779061168d565b61042b816108df565b50565b60606002805461043d906116c2565b80601f0160208091040260200160405190810160405280929190818152602001828054610469906116c2565b80156104b65780601f1061048b576101008083540402835291602001916104b6565b820191906000526020600020905b81548152906001019060200180831161049957829003601f168201915b50505050509050919050565b60006104cf33600061030f565b1461051c5760405162461bcd60e51b815260206004820152601d60248201527f455243313135353a20746f6b656e20616c7265616479206d696e7465640000006044820152606401610377565b60045434101561056e5760405162461bcd60e51b815260206004820181905260248201527f4e6f7420656e6f75676820657468657220666f72207472616e73616374696f6e6044820152606401610377565b61058b3360006001604051806020016040528060008152506108f2565b565b6001600160a01b0385163314806105a957506105a985336102a1565b6106105760405162461bcd60e51b815260206004820152603260248201527f455243313135353a207472616e736665722063616c6c6572206973206e6f74206044820152711bdddb995c881b9bdc88185c1c1c9bdd995960721b6064820152608401610377565b61061d8585858585610a06565b5050505050565b606081518351146106895760405162461bcd60e51b815260206004820152602960248201527f455243313135353a206163636f756e747320616e6420696473206c656e677468604482015268040dad2e6dac2e8c6d60bb1b6064820152608401610377565b6000835167ffffffffffffffff8111156106a5576106a56111bb565b6040519080825280602002602001820160405280156106ce578160200160208202803683370190505b50905060005b8451811015610746576107198582815181106106f2576106f26116fd565b602002602001015185838151811061070c5761070c6116fd565b602002602001015161030f565b82828151811061072b5761072b6116fd565b602090810291909101015261073f81611729565b90506106d4565b509392505050565b6003546001600160a01b031633146107785760405162461bcd60e51b81526004016103779061168d565b61058b6000610be3565b6003546001600160a01b031633146107ac5760405162461bcd60e51b81526004016103779061168d565b600455565b6107bc338383610c35565b5050565b6001600160a01b0385163314806107dc57506107dc85336102a1565b61083a5760405162461bcd60e51b815260206004820152602960248201527f455243313135353a2063616c6c6572206973206e6f74206f776e6572206e6f7260448201526808185c1c1c9bdd995960ba1b6064820152608401610377565b61061d8585858585610d16565b6003546001600160a01b031633146108715760405162461bcd60e51b81526004016103779061168d565b6001600160a01b0381166108d65760405162461bcd60e51b815260206004820152602660248201527f4f776e61626c653a206e6577206f776e657220697320746865207a65726f206160448201526564647265737360d01b6064820152608401610377565b61042b81610be3565b80516107bc9060029060208401906110a2565b6001600160a01b0384166109525760405162461bcd60e51b815260206004820152602160248201527f455243313135353a206d696e7420746f20746865207a65726f206164647265736044820152607360f81b6064820152608401610377565b33600061095e85610e40565b9050600061096b85610e40565b90506000868152602081815260408083206001600160a01b038b1684529091528120805487929061099d908490611744565b909155505060408051878152602081018790526001600160a01b03808a1692600092918716917fc3d58168c5ae7397731d063d5bbf3d657854427343f4c083240f7aacaa2d0f62910160405180910390a46109fd83600089898989610e8b565b50505050505050565b8151835114610a685760405162461bcd60e51b815260206004820152602860248201527f455243313135353a2069647320616e6420616d6f756e7473206c656e677468206044820152670dad2e6dac2e8c6d60c31b6064820152608401610377565b6001600160a01b038416610a8e5760405162461bcd60e51b81526004016103779061175c565b3360005b8451811015610b75576000858281518110610aaf57610aaf6116fd565b602002602001015190506000858381518110610acd57610acd6116fd565b602090810291909101810151600084815280835260408082206001600160a01b038e168352909352919091205490915081811015610b1d5760405162461bcd60e51b8152600401610377906117a1565b6000838152602081815260408083206001600160a01b038e8116855292528083208585039055908b16825281208054849290610b5a908490611744565b9250508190555050505080610b6e90611729565b9050610a92565b50846001600160a01b0316866001600160a01b0316826001600160a01b03167f4a39dc06d4c0dbc64b70af90fd698a233a518aa5d07e595d983b8c0526c8f7fb8787604051610bc59291906117eb565b60405180910390a4610bdb818787878787610fe7565b505050505050565b600380546001600160a01b038381166001600160a01b0319831681179093556040519116919082907f8be0079c531659141344cd1fd0a4f28419497f9722a3daafe3b4186f6b6457e090600090a35050565b816001600160a01b0316836001600160a01b03161415610ca95760405162461bcd60e51b815260206004820152602960248201527f455243313135353a2073657474696e6720617070726f76616c20737461747573604482015268103337b91039b2b63360b91b6064820152608401610377565b6001600160a01b03838116600081815260016020908152604080832094871680845294825291829020805460ff191686151590811790915591519182527f17307eab39ab6107e8899845ad3d59bd9653f200f220920489ca2b5937696c31910160405180910390a3505050565b6001600160a01b038416610d3c5760405162461bcd60e51b81526004016103779061175c565b336000610d4885610e40565b90506000610d5585610e40565b90506000868152602081815260408083206001600160a01b038c16845290915290205485811015610d985760405162461bcd60e51b8152600401610377906117a1565b6000878152602081815260408083206001600160a01b038d8116855292528083208985039055908a16825281208054889290610dd5908490611744565b909155505060408051888152602081018890526001600160a01b03808b16928c821692918816917fc3d58168c5ae7397731d063d5bbf3d657854427343f4c083240f7aacaa2d0f62910160405180910390a4610e35848a8a8a8a8a610e8b565b505050505050505050565b60408051600180825281830190925260609160009190602080830190803683370190505090508281600081518110610e7a57610e7a6116fd565b602090810291909101015292915050565b6001600160a01b0384163b15610bdb5760405163f23a6e6160e01b81526001600160a01b0385169063f23a6e6190610ecf9089908990889088908890600401611819565b6020604051808303816000875af1925050508015610f0a575060408051601f3d908101601f19168201909252610f079181019061185e565b60015b610fb757610f1661187b565b806308c379a01415610f505750610f2b611897565b80610f365750610f52565b8060405162461bcd60e51b81526004016103779190611313565b505b60405162461bcd60e51b815260206004820152603460248201527f455243313135353a207472616e7366657220746f206e6f6e20455243313135356044820152732932b1b2b4bb32b91034b6b83632b6b2b73a32b960611b6064820152608401610377565b6001600160e01b0319811663f23a6e6160e01b146109fd5760405162461bcd60e51b815260040161037790611921565b6001600160a01b0384163b15610bdb5760405163bc197c8160e01b81526001600160a01b0385169063bc197c819061102b9089908990889088908890600401611969565b6020604051808303816000875af1925050508015611066575060408051601f3d908101601f191682019092526110639181019061185e565b60015b61107257610f1661187b565b6001600160e01b0319811663bc197c8160e01b146109fd5760405162461bcd60e51b815260040161037790611921565b8280546110ae906116c2565b90600052602060002090601f0160209004810192826110d05760008555611116565b82601f106110e957805160ff1916838001178555611116565b82800160010185558215611116579182015b828111156111165782518255916020019190600101906110fb565b50611122929150611126565b5090565b5b808211156111225760008155600101611127565b80356001600160a01b038116811461115257600080fd5b919050565b6000806040838503121561116a57600080fd5b6111738361113b565b946020939093013593505050565b6001600160e01b03198116811461042b57600080fd5b6000602082840312156111a957600080fd5b81356111b481611181565b9392505050565b634e487b7160e01b600052604160045260246000fd5b601f8201601f1916810167ffffffffffffffff811182821017156111f7576111f76111bb565b6040525050565b600067ffffffffffffffff831115611218576112186111bb565b60405161122f601f8501601f1916602001826111d1565b80915083815284848401111561124457600080fd5b83836020830137600060208583010152509392505050565b60006020828403121561126e57600080fd5b813567ffffffffffffffff81111561128557600080fd5b8201601f8101841361129657600080fd5b6112a5848235602084016111fe565b949350505050565b6000602082840312156112bf57600080fd5b5035919050565b6000815180845260005b818110156112ec576020818501810151868301820152016112d0565b818111156112fe576000602083870101525b50601f01601f19169290920160200192915050565b6020815260006111b460208301846112c6565b600067ffffffffffffffff821115611340576113406111bb565b5060051b60200190565b600082601f83011261135b57600080fd5b8135602061136882611326565b60405161137582826111d1565b83815260059390931b850182019282810191508684111561139557600080fd5b8286015b848110156113b05780358352918301918301611399565b509695505050505050565b600082601f8301126113cc57600080fd5b6111b4838335602085016111fe565b600080600080600060a086880312156113f357600080fd5b6113fc8661113b565b945061140a6020870161113b565b9350604086013567ffffffffffffffff8082111561142757600080fd5b61143389838a0161134a565b9450606088013591508082111561144957600080fd5b61145589838a0161134a565b9350608088013591508082111561146b57600080fd5b50611478888289016113bb565b9150509295509295909350565b6000806040838503121561149857600080fd5b823567ffffffffffffffff808211156114b057600080fd5b818501915085601f8301126114c457600080fd5b813560206114d182611326565b6040516114de82826111d1565b83815260059390931b85018201928281019150898411156114fe57600080fd5b948201945b83861015611523576115148661113b565b82529482019490820190611503565b9650508601359250508082111561153957600080fd5b506115468582860161134a565b9150509250929050565b600081518084526020808501945080840160005b8381101561158057815187529582019590820190600101611564565b509495945050505050565b6020815260006111b46020830184611550565b600080604083850312156115b157600080fd5b6115ba8361113b565b9150602083013580151581146115cf57600080fd5b809150509250929050565b600080604083850312156115ed57600080fd5b6115f68361113b565b91506116046020840161113b565b90509250929050565b600080600080600060a0868803121561162557600080fd5b61162e8661113b565b945061163c6020870161113b565b93506040860135925060608601359150608086013567ffffffffffffffff81111561166657600080fd5b611478888289016113bb565b60006020828403121561168457600080fd5b6111b48261113b565b6020808252818101527f4f776e61626c653a2063616c6c6572206973206e6f7420746865206f776e6572604082015260600190565b600181811c908216806116d657607f821691505b602082108114156116f757634e487b7160e01b600052602260045260246000fd5b50919050565b634e487b7160e01b600052603260045260246000fd5b634e487b7160e01b600052601160045260246000fd5b600060001982141561173d5761173d611713565b5060010190565b6000821982111561175757611757611713565b500190565b60208082526025908201527f455243313135353a207472616e7366657220746f20746865207a65726f206164604082015264647265737360d81b606082015260800190565b6020808252602a908201527f455243313135353a20696e73756666696369656e742062616c616e636520666f60408201526939103a3930b739b332b960b11b606082015260800190565b6040815260006117fe6040830185611550565b82810360208401526118108185611550565b95945050505050565b6001600160a01b03868116825285166020820152604081018490526060810183905260a060808201819052600090611853908301846112c6565b979650505050505050565b60006020828403121561187057600080fd5b81516111b481611181565b600060033d11156118945760046000803e5060005160e01c5b90565b600060443d10156118a55790565b6040516003193d81016004833e81513d67ffffffffffffffff81602484011181841117156118d557505050505090565b82850191508151818111156118ed5750505050505090565b843d87010160208285010111156119075750505050505090565b611916602082860101876111d1565b509095945050505050565b60208082526028908201527f455243313135353a204552433131353552656365697665722072656a656374656040820152676420746f6b656e7360c01b606082015260800190565b6001600160a01b0386811682528516602082015260a06040820181905260009061199590830186611550565b82810360608401526119a78186611550565b905082810360808401526119bb81856112c6565b9897505050505050505056fea264697066735822122031f80c875f5750aa98c17903cf087e81eb041bb7116ad6d75b08ca4a620fd43964736f6c634300080c0033697066733a2f2f626166797265696478327971617734726d6e6363706b367963723272706b746c62737634716467636d617265326a6d3471373577653366746134752f6d657461646174612e6a736f6e",
  "linkReferences": {},
  "deployedLinkReferences": {}
}