{
  "_format": "hh-sol-artifact-1",
  "contractName": "NftShop",
  "sourceName": "contracts/NftShop.sol",
  "abi": [
    {
      "inputs": [],
      "stateMutability": "nonpayable",
      "type": "constructor"
    },
    {
      "anonymous": false,
      "inputs": [
        {
          "indexed": true,
          "internalType": "address",
          "name": "account",
          "type": "address"
        },
        {
          "indexed": true,
          "internalType": "address",
          "name": "operator",
          "type": "address"
        },
        {
          "indexed": false,
          "internalType": "bool",
          "name": "approved",
          "type": "bool"
        }
      ],
      "name": "ApprovalForAll",
      "type": "event"
    },
    {
      "anonymous": false,
      "inputs": [
        {
          "indexed": true,
          "internalType": "address",
          "name": "previousOwner",
          "type": "address"
        },
        {
          "indexed": true,
          "internalType": "address",
          "name": "newOwner",
          "type": "address"
        }
      ],
      "name": "OwnershipTransferred",
      "type": "event"
    },
    {
      "anonymous": false,
      "inputs": [
        {
          "indexed": true,
          "internalType": "address",
          "name": "operator",
          "type": "address"
        },
        {
          "indexed": true,
          "internalType": "address",
          "name": "from",
          "type": "address"
        },
        {
          "indexed": true,
          "internalType": "address",
          "name": "to",
          "type": "address"
        },
        {
          "indexed": false,
          "internalType": "uint256[]",
          "name": "ids",
          "type": "uint256[]"
        },
        {
          "indexed": false,
          "internalType": "uint256[]",
          "name": "values",
          "type": "uint256[]"
        }
      ],
      "name": "TransferBatch",
      "type": "event"
    },
    {
      "anonymous": false,
      "inputs": [
        {
          "indexed": true,
          "internalType": "address",
          "name": "operator",
          "type": "address"
        },
        {
          "indexed": true,
          "internalType": "address",
          "name": "from",
          "type": "address"
        },
        {
          "indexed": true,
          "internalType": "address",
          "name": "to",
          "type": "address"
        },
        {
          "indexed": false,
          "internalType": "uint256",
          "name": "id",
          "type": "uint256"
        },
        {
          "indexed": false,
          "internalType": "uint256",
          "name": "value",
          "type": "uint256"
        }
      ],
      "name": "TransferSingle",
      "type": "event"
    },
    {
      "anonymous": false,
      "inputs": [
        {
          "indexed": false,
          "internalType": "string",
          "name": "value",
          "type": "string"
        },
        {
          "indexed": true,
          "internalType": "uint256",
          "name": "id",
          "type": "uint256"
        }
      ],
      "name": "URI",
      "type": "event"
    },
    {
      "inputs": [
        {
          "internalType": "address",
          "name": "account",
          "type": "address"
        },
        {
          "internalType": "uint256",
          "name": "id",
          "type": "uint256"
        }
      ],
      "name": "balanceOf",
      "outputs": [
        {
          "internalType": "uint256",
          "name": "",
          "type": "uint256"
        }
      ],
      "stateMutability": "view",
      "type": "function"
    },
    {
      "inputs": [
        {
          "internalType": "address[]",
          "name": "accounts",
          "type": "address[]"
        },
        {
          "internalType": "uint256[]",
          "name": "ids",
          "type": "uint256[]"
        }
      ],
      "name": "balanceOfBatch",
      "outputs": [
        {
          "internalType": "uint256[]",
          "name": "",
          "type": "uint256[]"
        }
      ],
      "stateMutability": "view",
      "type": "function"
    },
    {
      "inputs": [
        {
          "internalType": "address",
          "name": "account",
          "type": "address"
        },
        {
          "internalType": "address",
          "name": "operator",
          "type": "address"
        }
      ],
      "name": "isApprovedForAll",
      "outputs": [
        {
          "internalType": "bool",
          "name": "",
          "type": "bool"
        }
      ],
      "stateMutability": "view",
      "type": "function"
    },
    {
      "inputs": [],
      "name": "mint",
      "outputs": [],
      "stateMutability": "nonpayable",
      "type": "function"
    },
    {
      "inputs": [],
      "name": "owner",
      "outputs": [
        {
          "internalType": "address",
          "name": "",
          "type": "address"
        }
      ],
      "stateMutability": "view",
      "type": "function"
    },
    {
      "inputs": [],
      "name": "price",
      "outputs": [
        {
          "internalType": "uint256",
          "name": "",
          "type": "uint256"
        }
      ],
      "stateMutability": "view",
      "type": "function"
    },
    {
      "inputs": [],
      "name": "renounceOwnership",
      "outputs": [],
      "stateMutability": "nonpayable",
      "type": "function"
    },
    {
      "inputs": [
        {
          "internalType": "address",
          "name": "from",
          "type": "address"
        },
        {
          "internalType": "address",
          "name": "to",
          "type": "address"
        },
        {
          "internalType": "uint256[]",
          "name": "ids",
          "type": "uint256[]"
        },
        {
          "internalType": "uint256[]",
          "name": "amounts",
          "type": "uint256[]"
        },
        {
          "internalType": "bytes",
          "name": "data",
          "type": "bytes"
        }
      ],
      "name": "safeBatchTransferFrom",
      "outputs": [],
      "stateMutability": "nonpayable",
      "type": "function"
    },
    {
      "inputs": [
        {
          "internalType": "address",
          "name": "from",
          "type": "address"
        },
        {
          "internalType": "address",
          "name": "to",
          "type": "address"
        },
        {
          "internalType": "uint256",
          "name": "id",
          "type": "uint256"
        },
        {
          "internalType": "uint256",
          "name": "amount",
          "type": "uint256"
        },
        {
          "internalType": "bytes",
          "name": "data",
          "type": "bytes"
        }
      ],
      "name": "safeTransferFrom",
      "outputs": [],
      "stateMutability": "nonpayable",
      "type": "function"
    },
    {
      "inputs": [
        {
          "internalType": "address",
          "name": "operator",
          "type": "address"
        },
        {
          "internalType": "bool",
          "name": "approved",
          "type": "bool"
        }
      ],
      "name": "setApprovalForAll",
      "outputs": [],
      "stateMutability": "nonpayable",
      "type": "function"
    },
    {
      "inputs": [
        {
          "internalType": "uint256",
          "name": "_price",
          "type": "uint256"
        }
      ],
      "name": "setPrice",
      "outputs": [],
      "stateMutability": "nonpayable",
      "type": "function"
    },
    {
      "inputs": [
        {
          "internalType": "string",
          "name": "newuri",
          "type": "string"
        }
      ],
      "name": "setURI",
      "outputs": [],
      "stateMutability": "nonpayable",
      "type": "function"
    },
    {
      "inputs": [
        {
          "internalType": "bytes4",
          "name": "interfaceId",
          "type": "bytes4"
        }
      ],
      "name": "supportsInterface",
      "outputs": [
        {
          "internalType": "bool",
          "name": "",
          "type": "bool"
        }
      ],
      "stateMutability": "view",
      "type": "function"
    },
    {
      "inputs": [
        {
          "internalType": "address",
          "name": "newOwner",
          "type": "address"
        }
      ],
      "name": "transferOwnership",
      "outputs": [],
      "stateMutability": "nonpayable",
      "type": "function"
    },
    {
      "inputs": [
        {
          "internalType": "uint256",
          "name": "",
          "type": "uint256"
        }
      ],
      "name": "uri",
      "outputs": [
        {
          "internalType": "string",
          "name": "",
          "type": "string"
        }
      ],
      "stateMutability": "view",
      "type": "function"
    }
  ],
  "bytecode": "0x6080604052662386f26fc100006004553480156200001c57600080fd5b5060405180608001604052806050815260200162001ae660509139620000428162000054565b506200004e336200006d565b620001a2565b805162000069906002906020840190620000bf565b5050565b600380546001600160a01b038381166001600160a01b0319831681179093556040519116919082907f8be0079c531659141344cd1fd0a4f28419497f9722a3daafe3b4186f6b6457e090600090a35050565b828054620000cd9062000165565b90600052602060002090601f016020900481019282620000f157600085556200013c565b82601f106200010c57805160ff19168380011785556200013c565b828001600101855582156200013c579182015b828111156200013c5782518255916020019190600101906200011f565b506200014a9291506200014e565b5090565b5b808211156200014a57600081556001016200014f565b600181811c908216806200017a57607f821691505b602082108114156200019c57634e487b7160e01b600052602260045260246000fd5b50919050565b61193480620001b26000396000f3fe608060405234801561001057600080fd5b50600436106100f45760003560e01c8063715018a611610097578063a22cb46511610066578063a22cb465146101f1578063e985e9c514610204578063f242432a14610240578063f2fde38b1461025357600080fd5b8063715018a6146101b25780638da5cb5b146101ba57806391b7f5ed146101d5578063a035b1fe146101e857600080fd5b80630e89341c116100d35780630e89341c146101575780631249c58b146101775780632eb2c2d61461017f5780634e1273f41461019257600080fd5b8062fdd58e146100f957806301ffc9a71461011f57806302fe530514610142575b600080fd5b61010c61010736600461108e565b610266565b6040519081526020015b60405180910390f35b61013261012d3660046110ce565b6102fd565b6040519015158152602001610116565b610155610150366004611193565b61034f565b005b61016a6101653660046111e4565b610385565b604051610116919061124a565b610155610419565b61015561018d366004611312565b610460565b6101a56101a03660046113bc565b6104f7565b60405161011691906114c2565b610155610621565b6003546040516001600160a01b039091168152602001610116565b6101556101e33660046111e4565b610655565b61010c60045481565b6101556101ff3660046114d5565b610684565b610132610212366004611511565b6001600160a01b03918216600090815260016020908152604080832093909416825291909152205460ff1690565b61015561024e366004611544565b610693565b6101556102613660046115a9565b61071a565b60006001600160a01b0383166102d75760405162461bcd60e51b815260206004820152602b60248201527f455243313135353a2062616c616e636520717565727920666f7220746865207a60448201526a65726f206164647265737360a81b60648201526084015b60405180910390fd5b506000908152602081815260408083206001600160a01b03949094168352929052205490565b60006001600160e01b03198216636cdb3d1360e11b148061032e57506001600160e01b031982166303a24d0760e21b145b8061034957506301ffc9a760e01b6001600160e01b03198316145b92915050565b6003546001600160a01b031633146103795760405162461bcd60e51b81526004016102ce906115c4565b610382816107b2565b50565b606060028054610394906115f9565b80601f01602080910402602001604051908101604052809291908181526020018280546103c0906115f9565b801561040d5780601f106103e25761010080835404028352916020019161040d565b820191906000526020600020905b8154815290600101906020018083116103f057829003601f168201915b50505050509050919050565b610441604051806040016040528060078152602001666d696e74696e6760c81b8152506107c5565b61045e336000600160405180602001604052806000815250610808565b565b6001600160a01b03851633148061047c575061047c8533610212565b6104e35760405162461bcd60e51b815260206004820152603260248201527f455243313135353a207472616e736665722063616c6c6572206973206e6f74206044820152711bdddb995c881b9bdc88185c1c1c9bdd995960721b60648201526084016102ce565b6104f0858585858561091c565b5050505050565b6060815183511461055c5760405162461bcd60e51b815260206004820152602960248201527f455243313135353a206163636f756e747320616e6420696473206c656e677468604482015268040dad2e6dac2e8c6d60bb1b60648201526084016102ce565b6000835167ffffffffffffffff811115610578576105786110f2565b6040519080825280602002602001820160405280156105a1578160200160208202803683370190505b50905060005b8451811015610619576105ec8582815181106105c5576105c5611634565b60200260200101518583815181106105df576105df611634565b6020026020010151610266565b8282815181106105fe576105fe611634565b602090810291909101015261061281611660565b90506105a7565b509392505050565b6003546001600160a01b0316331461064b5760405162461bcd60e51b81526004016102ce906115c4565b61045e6000610af9565b6003546001600160a01b0316331461067f5760405162461bcd60e51b81526004016102ce906115c4565b600455565b61068f338383610b4b565b5050565b6001600160a01b0385163314806106af57506106af8533610212565b61070d5760405162461bcd60e51b815260206004820152602960248201527f455243313135353a2063616c6c6572206973206e6f74206f776e6572206e6f7260448201526808185c1c1c9bdd995960ba1b60648201526084016102ce565b6104f08585858585610c2c565b6003546001600160a01b031633146107445760405162461bcd60e51b81526004016102ce906115c4565b6001600160a01b0381166107a95760405162461bcd60e51b815260206004820152602660248201527f4f776e61626c653a206e6577206f776e657220697320746865207a65726f206160448201526564647265737360d01b60648201526084016102ce565b61038281610af9565b805161068f906002906020840190610fd9565b610382816040516024016107d9919061124a565b60408051601f198184030181529190526020810180516001600160e01b031663104c13eb60e21b179052610d56565b6001600160a01b0384166108685760405162461bcd60e51b815260206004820152602160248201527f455243313135353a206d696e7420746f20746865207a65726f206164647265736044820152607360f81b60648201526084016102ce565b33600061087485610d77565b9050600061088185610d77565b90506000868152602081815260408083206001600160a01b038b168452909152812080548792906108b390849061167b565b909155505060408051878152602081018790526001600160a01b03808a1692600092918716917fc3d58168c5ae7397731d063d5bbf3d657854427343f4c083240f7aacaa2d0f62910160405180910390a461091383600089898989610dc2565b50505050505050565b815183511461097e5760405162461bcd60e51b815260206004820152602860248201527f455243313135353a2069647320616e6420616d6f756e7473206c656e677468206044820152670dad2e6dac2e8c6d60c31b60648201526084016102ce565b6001600160a01b0384166109a45760405162461bcd60e51b81526004016102ce90611693565b3360005b8451811015610a8b5760008582815181106109c5576109c5611634565b6020026020010151905060008583815181106109e3576109e3611634565b602090810291909101810151600084815280835260408082206001600160a01b038e168352909352919091205490915081811015610a335760405162461bcd60e51b81526004016102ce906116d8565b6000838152602081815260408083206001600160a01b038e8116855292528083208585039055908b16825281208054849290610a7090849061167b565b9250508190555050505080610a8490611660565b90506109a8565b50846001600160a01b0316866001600160a01b0316826001600160a01b03167f4a39dc06d4c0dbc64b70af90fd698a233a518aa5d07e595d983b8c0526c8f7fb8787604051610adb929190611722565b60405180910390a4610af1818787878787610f1e565b505050505050565b600380546001600160a01b038381166001600160a01b0319831681179093556040519116919082907f8be0079c531659141344cd1fd0a4f28419497f9722a3daafe3b4186f6b6457e090600090a35050565b816001600160a01b0316836001600160a01b03161415610bbf5760405162461bcd60e51b815260206004820152602960248201527f455243313135353a2073657474696e6720617070726f76616c20737461747573604482015268103337b91039b2b63360b91b60648201526084016102ce565b6001600160a01b03838116600081815260016020908152604080832094871680845294825291829020805460ff191686151590811790915591519182527f17307eab39ab6107e8899845ad3d59bd9653f200f220920489ca2b5937696c31910160405180910390a3505050565b6001600160a01b038416610c525760405162461bcd60e51b81526004016102ce90611693565b336000610c5e85610d77565b90506000610c6b85610d77565b90506000868152602081815260408083206001600160a01b038c16845290915290205485811015610cae5760405162461bcd60e51b81526004016102ce906116d8565b6000878152602081815260408083206001600160a01b038d8116855292528083208985039055908a16825281208054889290610ceb90849061167b565b909155505060408051888152602081018890526001600160a01b03808b16928c821692918816917fc3d58168c5ae7397731d063d5bbf3d657854427343f4c083240f7aacaa2d0f62910160405180910390a4610d4b848a8a8a8a8a610dc2565b505050505050505050565b80516a636f6e736f6c652e6c6f67602083016000808483855afa5050505050565b60408051600180825281830190925260609160009190602080830190803683370190505090508281600081518110610db157610db1611634565b602090810291909101015292915050565b6001600160a01b0384163b15610af15760405163f23a6e6160e01b81526001600160a01b0385169063f23a6e6190610e069089908990889088908890600401611750565b6020604051808303816000875af1925050508015610e41575060408051601f3d908101601f19168201909252610e3e91810190611795565b60015b610eee57610e4d6117b2565b806308c379a01415610e875750610e626117ce565b80610e6d5750610e89565b8060405162461bcd60e51b81526004016102ce919061124a565b505b60405162461bcd60e51b815260206004820152603460248201527f455243313135353a207472616e7366657220746f206e6f6e20455243313135356044820152732932b1b2b4bb32b91034b6b83632b6b2b73a32b960611b60648201526084016102ce565b6001600160e01b0319811663f23a6e6160e01b146109135760405162461bcd60e51b81526004016102ce90611858565b6001600160a01b0384163b15610af15760405163bc197c8160e01b81526001600160a01b0385169063bc197c8190610f6290899089908890889088906004016118a0565b6020604051808303816000875af1925050508015610f9d575060408051601f3d908101601f19168201909252610f9a91810190611795565b60015b610fa957610e4d6117b2565b6001600160e01b0319811663bc197c8160e01b146109135760405162461bcd60e51b81526004016102ce90611858565b828054610fe5906115f9565b90600052602060002090601f016020900481019282611007576000855561104d565b82601f1061102057805160ff191683800117855561104d565b8280016001018555821561104d579182015b8281111561104d578251825591602001919060010190611032565b5061105992915061105d565b5090565b5b80821115611059576000815560010161105e565b80356001600160a01b038116811461108957600080fd5b919050565b600080604083850312156110a157600080fd5b6110aa83611072565b946020939093013593505050565b6001600160e01b03198116811461038257600080fd5b6000602082840312156110e057600080fd5b81356110eb816110b8565b9392505050565b634e487b7160e01b600052604160045260246000fd5b601f8201601f1916810167ffffffffffffffff8111828210171561112e5761112e6110f2565b6040525050565b600067ffffffffffffffff83111561114f5761114f6110f2565b604051611166601f8501601f191660200182611108565b80915083815284848401111561117b57600080fd5b83836020830137600060208583010152509392505050565b6000602082840312156111a557600080fd5b813567ffffffffffffffff8111156111bc57600080fd5b8201601f810184136111cd57600080fd5b6111dc84823560208401611135565b949350505050565b6000602082840312156111f657600080fd5b5035919050565b6000815180845260005b8181101561122357602081850181015186830182015201611207565b81811115611235576000602083870101525b50601f01601f19169290920160200192915050565b6020815260006110eb60208301846111fd565b600067ffffffffffffffff821115611277576112776110f2565b5060051b60200190565b600082601f83011261129257600080fd5b8135602061129f8261125d565b6040516112ac8282611108565b83815260059390931b85018201928281019150868411156112cc57600080fd5b8286015b848110156112e757803583529183019183016112d0565b509695505050505050565b600082601f83011261130357600080fd5b6110eb83833560208501611135565b600080600080600060a0868803121561132a57600080fd5b61133386611072565b945061134160208701611072565b9350604086013567ffffffffffffffff8082111561135e57600080fd5b61136a89838a01611281565b9450606088013591508082111561138057600080fd5b61138c89838a01611281565b935060808801359150808211156113a257600080fd5b506113af888289016112f2565b9150509295509295909350565b600080604083850312156113cf57600080fd5b823567ffffffffffffffff808211156113e757600080fd5b818501915085601f8301126113fb57600080fd5b813560206114088261125d565b6040516114158282611108565b83815260059390931b850182019282810191508984111561143557600080fd5b948201945b8386101561145a5761144b86611072565b8252948201949082019061143a565b9650508601359250508082111561147057600080fd5b5061147d85828601611281565b9150509250929050565b600081518084526020808501945080840160005b838110156114b75781518752958201959082019060010161149b565b509495945050505050565b6020815260006110eb6020830184611487565b600080604083850312156114e857600080fd5b6114f183611072565b91506020830135801515811461150657600080fd5b809150509250929050565b6000806040838503121561152457600080fd5b61152d83611072565b915061153b60208401611072565b90509250929050565b600080600080600060a0868803121561155c57600080fd5b61156586611072565b945061157360208701611072565b93506040860135925060608601359150608086013567ffffffffffffffff81111561159d57600080fd5b6113af888289016112f2565b6000602082840312156115bb57600080fd5b6110eb82611072565b6020808252818101527f4f776e61626c653a2063616c6c6572206973206e6f7420746865206f776e6572604082015260600190565b600181811c9082168061160d57607f821691505b6020821081141561162e57634e487b7160e01b600052602260045260246000fd5b50919050565b634e487b7160e01b600052603260045260246000fd5b634e487b7160e01b600052601160045260246000fd5b60006000198214156116745761167461164a565b5060010190565b6000821982111561168e5761168e61164a565b500190565b60208082526025908201527f455243313135353a207472616e7366657220746f20746865207a65726f206164604082015264647265737360d81b606082015260800190565b6020808252602a908201527f455243313135353a20696e73756666696369656e742062616c616e636520666f60408201526939103a3930b739b332b960b11b606082015260800190565b6040815260006117356040830185611487565b82810360208401526117478185611487565b95945050505050565b6001600160a01b03868116825285166020820152604081018490526060810183905260a06080820181905260009061178a908301846111fd565b979650505050505050565b6000602082840312156117a757600080fd5b81516110eb816110b8565b600060033d11156117cb5760046000803e5060005160e01c5b90565b600060443d10156117dc5790565b6040516003193d81016004833e81513d67ffffffffffffffff816024840111818411171561180c57505050505090565b82850191508151818111156118245750505050505090565b843d870101602082850101111561183e5750505050505090565b61184d60208286010187611108565b509095945050505050565b60208082526028908201527f455243313135353a204552433131353552656365697665722072656a656374656040820152676420746f6b656e7360c01b606082015260800190565b6001600160a01b0386811682528516602082015260a0604082018190526000906118cc90830186611487565b82810360608401526118de8186611487565b905082810360808401526118f281856111fd565b9897505050505050505056fea26469706673582212207a664f583f034f365d15a516d08e588b7a3bf1183f135ade14d3d54ef0bede0364736f6c634300080c0033697066733a2f2f626166797265696478327971617734726d6e6363706b367963723272706b746c62737634716467636d617265326a6d3471373577653366746134752f6d657461646174612e6a736f6e",
  "linkReferences": {},
  "deployedLinkReferences": {}
}